{
  "contractName": "TestZK",
  "abi": [
    {
      "inputs": [],
      "name": "result",
      "outputs": [
        {
          "internalType": "uint256",
          "name": "",
          "type": "uint256"
        }
      ],
      "stateMutability": "view",
      "type": "function"
    },
    {
      "inputs": [],
      "name": "simpleComputation",
      "outputs": [
        {
          "internalType": "uint256",
          "name": "",
          "type": "uint256"
        }
      ],
      "stateMutability": "pure",
      "type": "function"
    },
    {
      "inputs": [
        {
          "internalType": "uint256",
          "name": "input",
          "type": "uint256"
        }
      ],
      "name": "complexComputation",
      "outputs": [
        {
          "internalType": "uint256",
          "name": "",
          "type": "uint256"
        }
      ],
      "stateMutability": "nonpayable",
      "type": "function"
    }
  ],
  "bytecode": "0x6080604052348015600e575f5ffd5b506102948061001c5f395ff3fe608060405234801561000f575f5ffd5b506004361061003f575f3560e01c80636537214714610043578063c026368514610061578063f9ced38514610091575b5f5ffd5b61004b6100af565b6040516100589190610121565b60405180910390f35b61007b60048036038101906100769190610168565b6100b4565b6040516100889190610121565b60405180910390f35b610099610101565b6040516100a69190610121565b60405180910390f35b5f5481565b5f5f8290505f5f90505b838110156100f057633b9aca0784836100d791906101c0565b6100e1919061022e565b915080806001019150506100be565b50805f819055505f54915050919050565b5f6002905090565b5f819050919050565b61011b81610109565b82525050565b5f6020820190506101345f830184610112565b92915050565b5f5ffd5b61014781610109565b8114610151575f5ffd5b50565b5f813590506101628161013e565b92915050565b5f6020828403121561017d5761017c61013a565b5b5f61018a84828501610154565b91505092915050565b7f4e487b71000000000000000000000000000000000000000000000000000000005f52601160045260245ffd5b5f6101ca82610109565b91506101d583610109565b92508282026101e381610109565b915082820484148315176101fa576101f9610193565b5b5092915050565b7f4e487b71000000000000000000000000000000000000000000000000000000005f52601260045260245ffd5b5f61023882610109565b915061024383610109565b92508261025357610252610201565b5b82820690509291505056fea264697066735822122001bd6a4d6dd74da39b7eafc493b6dbffabfc0edd7d4cc4c42d43754ee93b41be64736f6c634300081c0033",
  "immutableReferences": {},
  "source": "// SPDX-License-Identifier: MIT\npragma solidity ^0.8.0;\n\ncontract TestZK {\n    uint256 public result;\n\n    // Simple computation as a pure function\n    function simpleComputation() public pure returns (uint256) {\n        return 1 + 1;\n    }\n\n    // Complex computation that updates state\n    function complexComputation(uint256 input) public returns (uint256) {\n        uint256 temp = input;\n        for (uint256 i = 0; i < input; i++) {\n            temp = temp * input % 1000000007;\n        }\n        result = temp;\n        return result;\n    }\n}",
  "sourcePath": "/Users/teddyt/Desktop/develop2/defi-proj/contracts/TestZK.sol",
  "compiler": {
    "name": "solc",
    "version": "0.8.28+commit.7893614a.Emscripten.clang"
  },
  "schemaVersion": "3.4.16",
  "updatedAt": "2024-12-01T17:50:15.179Z",
  "devdoc": {
    "kind": "dev",
    "methods": {},
    "version": 1
  },
  "userdoc": {
    "kind": "user",
    "methods": {},
    "version": 1
  }
}